:020000001228C4
:100008007E14803120007F08F100911D0D28911188
:100018001F2071082000FF007E1009001328F80136
:10002800F901FA01203084000030850013305D2189
:100038007E102000A428240014082D39F000700830
:10004800FA007A08093A031D39281108F0007008E7
:100058002000B100B108031D3428B001B00A3528CA
:10006800B001F8012400151608007A08293A031D82
:10007800502824001108F0007808263E86008701E1
:10008800700881000130F0007008F8077808053A18
:100098000319F801151608002C30F0007008FA054D
:1000A8007A080C3A031D6F281108F0007008200028
:1000B800B100B108031D6428B001B00AF8016C282A
:1000C800B0012B08240091000130F0007008F900FD
:1000D8002400151608007A082C3A0319151A8C28DA
:1000E80020003008013A03193D282400161B8A28ED
:1000F80079082B3E86008701010891000130F00045
:100108007008F9077908053A0319F9011516080066
:100118002830F0007008FA057A08283A031D9C2850
:1001280020003008013A03193D282400151608005C
:1001380020003008013A03193D282400151608004C
:100148007830210099001930970023008C01C030C5
:100158008B0022008C1221008C160330F700083027
:10016800F6007830F500F50BB728F60BB728F70B33
:10017800B72810304A21F50075082000B40034086B
:10018800003A0319CB283408FF3A031DCF28323030
:10019800F5007508B400323011212000B401B30114
:1001A80022001D14FF3020009B00250091010C3017
:1001B8009300200091107C309C00911CE1282100C4
:1001C8008C120130F50075082000AD006400033082
:1001D800F6009730F500F50BEF28F60BEF28003204
:1001E8002100911120002608F5007508B500B50812
:1001F800031D012921008C160729B301B30A240025
:10020800961321008C1291152000350825009100C5
:10021800CF30F50075089305EA28F30021008C1407
:100228000C15F40105307402031827297408263EBA
:100238008600870181010130F2007208F407053059
:100248007402031C1A29F4010530740203183929B1
:1002580074082B3E8600870181010130F200720884
:10026800F40705307402031C2C297308240092003B
:100278003630950081309600103097008030940019
:10028800951620009111210091150800F3007308BC
:10029800F20072082000B10020003108230091000C
:1002A80015139513151413082000B2002000320806
:0E02B8000800640080010131890B5E290034CA
:020000040001F9
:080000000000000001000000F7
:04000E00BCC9FCDE8F
:00000001FF
